:100000000C94B5000C94CA000C94CA000C94CA005D
:100010000C94CA000C94CA000C94CA000C94CA0038
:100020000C94CA000C94CA000C94CA000C94CA0028
:100030000C94CA000C94CA000C94CA000C94CA0018
:100040000C94CA000C94CA000C94CA000C94CA0008
:100050000C94CA000C94CA000C94CA000C94CA00F8
:100060000C94CA000C94CA000C94CA000C94CA00E8
:100070000C94CA000C94CA000C94CA000C94CA00D8
:100080000C94CA000C94CA000C94CA000C94CA00C8
:100090000C94CA000C94CA000C94CA000C94CA00B8
:1000A0000C94CA000C94CA000C94CA000C94CA00A8
:1000B0000C94CA00A602A802A802A802A802A802DC
:1000C000A802A802A802A802A802A802A802A802E0
:1000D000A802A8029902240231023E024B025802F1
:1000E000650272027F028C02A802A802A802A8027E
:1000F000A802A802A80237013E01490154015C018F
:1001000061016A0171017C0183018E019701A201E5
:10011000A901B001B901C401CF01D801E101E60193
:10012000EF01FA0103020E021902A802A802A802B6
:10013000A802A802A80237013E01490154015C014E
:1001400061016A0171017C0183018E019701A201A5
:10015000A901B001B901C401CF01D801E101E60153
:10016000EF01FA0103020E02190211241FBECFEFA4
:10017000D8E0DEBFCDBF11E0A0E0B1E0E8E7F5E0F8
:1001800002C005900D92A231B107D9F70E94120169
:100190000C94BA020C94000085B1806285B92FEFEF
:1001A00083EC99E0215080409040E1F700C00000CE
:1001B00085B18F7D85B92FEF83EC99E02150804088
:1001C0009040E1F700C00000089585B1806285B9D4
:1001D0002FEF8BE49DE1215080409040E1F700C07B
:1001E000000085B18F7D85B92FEF83EC99E0215018
:1001F00080409040E1F700C0000008952FEF87E8AD
:1002000093E1215080409040E1F700C00000089544
:100210002FEF87E99AE3215080409040E1F700C03A
:1002200000000895CF93DF93CDB7DEB762970FB686
:10023000F894DEBF0FBECDBF82E1E0E0F1E0DE0169
:10024000119601900D928A95E1F784B1806284B98C
:1002500000E010E07FC18E2F90E0FC01B097EB35FD
:10026000F10508F075C1E65AFF4F0C94B4020E94E4
:10027000CC000E94E5000E94FE006AC10E94E500D9
:100280000E94CC000E94CC000E94CC000E94FE0084
:100290005FC10E94E5000E94CC000E94E5000E9420
:1002A000CC000E94FE0054C10E94E5000E94CC00D8
:1002B0000E94CC000E94FE000E94CC000E94FE0022
:1002C00047C10E94CC000E94CC000E94E5000E9421
:1002D000CC003EC10E94E5000E94E5000E94CC00D7
:1002E00037C10E94CC000E94CC000E94CC000E942A
:1002F000CC000E94FE002CC10E94CC000E94CC00C9
:100300000E94FE0025C10E94CC000E94E5000E94D0
:10031000E5000E94E5000E94FE001AC10E94E5006F
:100320000E94CC000E94E5000E94FE0011C10E94C4
:10033000CC000E94E5000E94CC000E94CC000E94EC
:10034000FE0006C10E94E5000E94E5000E94FE003A
:10035000FFC00E94E5000E94CC000E94FE00F8C091
:100360000E94E5000E94E5000E94E5000E94FE0058
:10037000EFC00E94CC000E94E5000E94E5000E94B0
:10038000CC000E94FE00E4C00E94E5000E94E5004F
:100390000E94CC000E94E5000E94FE00D9C00E948D
:1003A000CC000E94E5000E94CC000E94FE00D0C05C
:1003B0000E94CC000E94CC000E94CC000E94FE0053
:1003C000C7C00E94E5000E94FE00C2C00E94CC008F
:1003D0000E94CC000E94E5000E94FE00B9C00E946D
:1003E000CC000E94CC000E94CC000E94E5000E943C
:1003F000FE00AEC00E94CC000E94E5000E94E50015
:100400000E94FE00A5C00E94E5000E94CC000E9450
:10041000CC000E94E5000E94FE009AC00E94E50008
:100420000E94CC000E94E5000E94E5000E94FE00B0
:100430008FC00E94E5000E94E5000E94CC000E944F
:10044000CC000E94FE0084C00E94CC000E94E50007
:100450000E94E5000E94E5000E94E5000E94FE0067
:1004600077C00E94CC000E94CC000E94E5000E9450
:10047000E5000E94E5000E94FE006AC00E94CC00D8
:100480000E94CC000E94CC000E94E5000E94E50082
:100490000E94FE005DC00E94CC000E94CC000E9421
:1004A000CC000E94CC000E94E5000E94FE0050C0DB
:1004B0000E94CC000E94CC000E94CC000E94CC0084
:1004C0000E94CC000E94FE0043C00E94E5000E94F2
:1004D000CC000E94CC000E94CC000E94CC000E9464
:1004E000FE0036C00E94E5000E94E5000E94CC009C
:1004F0000E94CC000E94CC000E94FE0029C00E94F5
:10050000E5000E94E5000E94E5000E94CC000E94E8
:10051000CC000E94FE001CC00E94E5000E94E50085
:100520000E94E5000E94E5000E94CC000E94FE00AF
:100530000FC00E94E5000E94E5000E94E5000E94B5
:10054000E5000E94E5000E94FE0002C00E94080132
:100550000F5F1F4FE1E0F0E0EC0FFD1FE00FF11F18
:10056000E081E11178CE74CEEE0FFF1F0590F4917B
:08057000E02D0994F894FFCF7F
:1005780054524920425549203832383133353533C1
:0205880036003B
:00000001FF
